:020000040800F2
:10000000C00600204D020008E5110008CD100008D0
:10001000E1110008F90300081914000800000000AD
:10002000000000000000000000000000ED110008CA
:10003000FD03000800000000E9110008F1110008AC
:1000400067020008670200086702000867020008EC
:1000500067020008670200086702000867020008DC
:1000600067020008670200086702000867020008CC
:1000700067020008670200086702000867020008BC
:1000800067020008670200086702000867020008AC
:10009000670200086702000867020008670200089C
:1000A000670200086702000867020008670200088C
:1000B000670200086702000867020008670200087C
:1000C000670200086702000867020008670200086C
:1000D000670200086702000867020008670200085C
:1000E000670200086702000867020008670200084C
:1000F000670200086702000867020008670200083C
:10010000670200086702000867020008670200082B
:100110006702000867020008C112000867020008B1
:10012000670200086702000867020008670200080B
:1001300067020008670200086702000867020008FB
:1001400067020008670200086702000867020008EB
:1001500067020008670200086702000867020008DB
:1001600067020008670200086702000867020008CB
:10017000670200086702000867020008000000002C
:1001800067020008670200086702000867020008AB
:10019000670200086702000867020008670200089B
:1001A00000000000000000006702000800F002F8F4
:1001B00000F03CF80AA090E8000C82448344AAF1C5
:1001C0000107DA4501D100F031F8AFF2090EBAE8C3
:1001D0000F0013F0010F18BFFB1A43F0010318477B
:1001E00084120000A4120000103A24BF78C878C11D
:1001F000FAD8520724BF30C830C144BF04680C602D
:10020000704700000023002400250026103A28BF74
:1002100078C1FBD8520728BF30C148BF0B60704778
:100220001FB501F00AF91FBD10B510BD00F0A9F807
:100230001146FFF7F5FF01F0F1F800F0C7F803B43D
:10024000FFF7F2FF03BC00F0CFF800000948804739
:1002500009480047FEE7FEE7FEE7FEE7FEE7FEE7A8
:10026000FEE7FEE7FEE7FEE704480549054A064BC0
:1002700070470000AD120008AD010008C00000206A
:10028000C0060020C0020020C002002053EA020C79
:1002900000F069802DE9F04B4FF00006002B1FBFE6
:1002A000B3FA83F503FA05F424FA05F65E4012BFAB
:1002B0001643B2FA82F502FA05F4C5F120051EBF15
:1002C00022FA05FC44EA0C04203556EA044C4FEAB5
:1002D000144418BF641C4FF000084FF0000990420E
:1002E00071EB030C39D3002919BFB1FA81F701FA78
:1002F00007F6B0FA80F700FA07F6C7F120071EBF2D
:1003000020FA07FC46EA0C062037B6FBF4FCA7EB04
:100310000507103F07F01F0BCBF120062CFA06F65D
:100320000CFA0BFB44BFB3460026202FA4BF5E4649
:100330004FF0000B5BEA060C08BF4FF0010B19EB06
:100340000B0948EB0608ABFB027C06FB02CC0BFB5F
:1003500003CCC01B71EB0C01C1E70B4602464146C2
:100360004846BDE8F08B13B5084318BF4FF0FF3087
:100370000146AFF30080BDE81C40704770477047EE
:100380007047754600F02CF8AE46050069465346A6
:1003900020F00700854618B020B5FFF765FFBDE8DF
:1003A00020404FF000064FF000074FF000084FF0DC
:1003B000000BAC46ACE8C009ACE8C009ACE8C00929
:1003C000ACE8C00921F007018D46704710B504461E
:1003D000AFF300802046BDE81040FFF730BF0000BB
:1003E000004870471000002001491820ABBEFEE70E
:1003F0002600020070470000FEE700007047000082
:1004000072B600BFFEE700002DE9F04F82B000F1A8
:100410003E4242F2004502F1FF77C4F202050A2291
:1004200043F6004E4FEAB726A84208BF0922C4F29D
:10043000010E092E38BF4FEAB722012500260027FA
:100440004FF00008009208E008F101080437B8F105
:10045000100F06F1020600F0A7800C6805FA08F9F3
:1004600014EA090FF0D0D1F804B003220BF0030C0A
:10047000ACF10104B240012C6FEA020A10D8826884
:10048000CC6802EA0A02B440224382604268CBF39D
:10049000001422EA090204FA08F42243426005E04B
:1004A000BCF1030F02D14FF0030C20E0C2688C684E
:1004B00002EA0A02B4402243BCF1020FC26016D124
:1004C0006FF0030202EA58020244D2F820C007F09B
:1004D0001C050F230C69AB402CEA030304FA05F555
:1004E0002B431362D1F804B001250BF0030C026812
:1004F0000CFA06F302EA0A021A431BF4403F0260B8
:10050000A2D0002243F644030192C4F202031A6807
:100510004FF6084C42F480421A601A68CFF6FF7C0E
:1005200002F480420192019A28F00302724452F8C8
:100530000C3007F00C050F24AC40A343009C04FAD8
:1005400005F52B4342F80C30DEF808204B6842EAF0
:10055000090543F60C4CDC0258BF22EA0905CEF827
:100560000850C4F2010CDCF800209C0242EA0905A4
:1005700058BF22EA0905CCF80050DEF804209C039D
:1005800042EA090558BF22EA0905CEF80450DEF810
:100590000020DB0342EA090558BF22EA0905CEF82C
:1005A0000050012550E700BF02B0BDE8F08F000009
:1005B000426902EA0103914341EA034181617047C4
:1005C000002A08BF090481617047000040F2B800AA
:1005D000C2F200000068704740F2000040F2B8012B
:1005E000C2F20000C2F2000100780A6810440860FC
:1005F0007047000080B543F60040C4F20200016875
:1006000041F400710160016841F48061016001689A
:1006100041F480710160032000F088F80F2000F0A1
:1006200005F800F027F8002080BD000070B540F20A
:100630000006C2F2000640F208013278C2F2000160
:100640004FF47A730968B3FBF2F20446B1FBF2F19E
:10065000084600F059FB0F2C4FF0010508D838B9B7
:100660004FF0FF3021460022002500F033F874607F
:10067000284670BD82B0002043F640010190C4F2CC
:1006800002014A6842F480424A604A6802F48042A9
:100690000192019A0090086840F080500860086854
:1006A00000F080500090009802B07047002848BFCA
:1006B0007047C1B200F01F00012202FA00F04EF2B2
:1006C0000012CEF2000242EAD10121F003010860DB
:1006D0007047000010B54EF60C5CCEF2000CDCF852
:1006E0000030C3F3022E8EF00704042C28BF04242C
:1006F000BEF103034FF0FF3E0EFA04F438BF0023AF
:10070000A14399400EFA03F39A43114300F00F02FC
:1007100000F160430901043A03F564436244002890
:1007200048BF02F10C03197010BD00004EF60C51C9
:10073000CEF200010A684FF6FF031A4060F30A2266
:1007400042F0806040F0FD700860704770B582B084
:100750000020019043F64000C4F2020001684026E8
:1007600041F0805101600068C4F20E2600F0805014
:100770000190019847F204050120C4F200053060A1
:10078000FFF724FF044600BF2868C00306D4FFF724
:100790001DFF001BB0F57A7FF6D90EE001207060D6
:1007A000FFF714FF044600BF2868800308D4FFF752
:1007B0000DFF001BB0F57A7FF6D9032002B070BDA3
:1007C000002002B070BD00002DE9F041002800F0CB
:1007D0008B8043F60808C4F202080446D8F8F803F0
:1007E0000D4600F00F00884207D288F8F853D8F879
:1007F000F80300F00F00A84276D12068810717D5D2
:10080000410705D5D8F8001041F4E051C8F80010B0
:10081000010705D5D8F8001041F46041C8F8001070
:10082000D8F80010A26821F0F0011143C8F80010B8
:10083000C0073FD1D8F8F80300F00F00A84207D94D
:1008400088F8F853D8F8F80300F00F00A8424BD10D
:100850002068410707D5D8F80010E26821F4E0517C
:100860001143C8F80010000708D5D8F80000216926
:1008700020F4604040EAC100C8F8000000F054F8DD
:10088000D8F8001041F25442C1F30311C0F600023F
:10089000515C40F2080220FA01F140F20400C2F279
:1008A00000000068C2F200021160FFF7BFFE0020E6
:1008B000BDE8F0816068811E022907D258F8081C43
:1008C00089015CBF0120BDE8F08111E0012807D15A
:1008D00058F8081C89035CBF0120BDE8F08107E0DF
:1008E00058F8081C890703D40120BDE8F08100BF37
:1008F000D8F8001021F003010843C8F80000FFF702
:1009000065FE064641F28837D8F80000616800F0BD
:100910000C00B0EB810F8DD0FFF758FE801BB84262
:10092000F2D90320BDE8F08110B543F60404C4F207
:100930000204606800F00C0008280BD0042819BFDE
:1009400042F20040C0F2F40041F60030C0F2B700BD
:1009500010BD00BF206821682368490241F60031BC
:10096000C0F2B70100F03F02C3F388105CBF42F24F
:100970000041C0F2F401A1FB00010023FFF786FC57
:1009800021680222C1F3014102EB4101B0FBF1F009
:1009900010BD00002DE9F04182B0002868D0044667
:1009A000007843F60006C007C4F202060BD0B06818
:1009B00000F00C00042840F09F803068800302D5CE
:1009C0006068002854D0207880071AD5B06810F0ED
:1009D0000C0F09D0B06800F00C00082840F0A68089
:1009E0007068400200F1A2803068800702D5E0689C
:1009F00001283DD13068216920F0F80040EAC100AB
:100A000030602078000737D4207840074CD4A5699F
:100A100055B3B06800F00C00082840F0BB80012DF1
:100A200026D07068E16900F480028A4220D1216AF0
:100A300000F03F028A421BD147F6C071626A014052
:100A4000B1EB821F14D1A16A4FF6FF73C90399431A
:100A500000F44032A1F580318A4209D1E16A00F008
:100A60007060B0EB016F03D1002002B0BDE8F081EF
:100A7000012002B0BDE8F0816069002840F200006A
:100A8000C4F2472076D00121C0F8801EFFF79EFDFA
:100A9000054600BF706F8007B6D4FFF797FD401B77
:100AA0000228F7D9DDE000BF306C10F080580AD181
:100AB00000200190306C40F080503064306C00F0C9
:100AC00080500190019847F20007C4F2000738688F
:100AD000C00541D4386840F480703860FFF776FD77
:100AE000054600BF3868C00536D4FFF76FFD401BD0
:100AF0000228F7D9B5E000BFB06800F00C00082864
:100B000003D1706840023FF558AF6068B0F5803F90
:100B100007D0B0F5A02F40F08D80306840F48020E1
:100B20003060306840F4803030608DE0E06800284C
:100B300052D00020C4F2472001210160FFF746FD9A
:100B4000054600BF306880073FF554AFFFF73EFD14
:100B5000401B0228F6D984E0A068012805D00528AA
:100B60004ED1306F40F004003067306F40F001002C
:100B700030674FE00021C0F8801EFFF727FD0546D3
:100B8000706F80077FF540AFFFF720FD401B022804
:100B9000F6D966E00027C4F2472700203866FFF741
:100BA00015FD022D05460BD1306880015ED5FFF79B
:100BB0000DFD401B02284FF00300F5D955E700BF9B
:100BC000306880017FF550AFFFF700FD401B022821
:100BD0004FF00300F4D948E70020C4F24720002179
:100BE0000160FFF7F3FC0546306880077FF509AF29
:100BF000FFF7ECFC401B02284FF00300F4D934E768
:100C0000316F002821F001013167316F21F00401BB
:100C100031674DD0FFF7DAFC054641F2883700BF57
:100C2000306F800756D4FFF7D1FC401BB842F7D98C
:100C300017E000BF3168002821F48031316031684D
:100C400021F4802131604FD0FFF7C0FC054600BF82
:100C5000306880033FF5B7AEFFF7B8FC401B64284F
:100C6000F6D9032002B0BDE8F08100BF04F11C05F5
:100C70002FCD084340EA8210D9034FF6FF7291430B
:100C8000A1F5803140EA05600843706001203866B4
:100C9000FFF79CFC044600BF306880013FF5E4AEDE
:100CA000FFF794FC001B02284FF00300F4D9DCE6A8
:100CB000FFF78CFC054641F2883700BF306F800794
:100CC00008D5FFF783FC401BB8424FF00300F5D96D
:100CD000CBE600BFB8F1000F7FF499AE306C20F086
:100CE0008050306493E600BFFFF770FC054600BFFC
:100CF000306880037FF567AEFFF768FC401B64280F
:100D00004FF00300F4D9B0E6411E0020B0EB116FA4
:100D10001CBF012070474EF21002CEF2000251605B
:100D20004EF62351CEF20001F0230B7007219060A4
:100D300011607047704700007047000010B590F8D0
:100D40003C20012A4FF0020251D080F83D20026879
:100D5000D2F804E0D2F808C00C682EF070032343E8
:100D600041F2FF74C4F20004A24253600EDC40F270
:100D7000FF73C4F200039A4216DCB2F1804F2BD00D
:100D800040F20043C4F2000324E000BF40F2FF330E
:100D9000C4F201039A4213DC41F60003C4F20003DB
:100DA0009A4219D0002313E040F60003C4F2000376
:100DB0009A4211D040F60043C4F200030AE000BF9B
:100DC00044F20003C4F201039A4205D040F200430A
:100DD000C4F201039A4204D149682CF080031943FC
:100DE00091600121002280F83D1080F83C201046DF
:100DF00010BD0000002804BF0120704710B5044654
:100E000090F83D0028B9002084F83C00204600F00E
:100E10001FF8022084F83D002068211D00F056FADA
:100E2000012084F8460084F83E0084F83F0084F8EE
:100E3000400084F8410084F8420084F8430084F8BC
:100E4000440084F8450084F83D00002010BD0000F7
:100E500080B582B0006841F20001C4F2000188420E
:100E60001CBF02B080BD0020019043F64000C4F2D8
:100E700002000168002241F01001016000680021B9
:100E800000F01000019001983620FFF723FC362077
:100E900002B0BDE88040FFF709BC000090F83D10AB
:100EA00001291CBF01207047022180F83D10006815
:100EB00041F2FF72C168C4F20002904241F00101A8
:100EC000C1600DDC40F2FF71C4F20001884215DC04
:100ED000B0F1804F2AD040F20041C4F2000123E07B
:100EE00040F2FF31C4F20101884213DC41F60001F7
:100EF000C4F20001884219D0002113E040F600013D
:100F0000C4F20001884211D040F60041C4F2000151
:100F10000AE000BF44F20001C4F20101884205D09A
:100F200040F20041C4F20101884206D1816801F01B
:100F30000701062904BF00207047016841F0010144
:100F400001600020704700007047000070B5044643
:100F50000068C5680669B10716D515F0020113D0FF
:100F60006FF002010161012121778069800703D0C0
:100F70002046FFF7E9FF05E0204600F08FF8204605
:100F800000F08EF800202077700719D515F00400C6
:100F900016D020686FF00401016102212177806979
:100FA00010F4407F04D02046FFF7CEFF06E000BFDC
:100FB000204600F073F8204600F072F800202077F9
:100FC000300717D515F0080014D020686FF008011D
:100FD000016104212177C069800703D02046FFF713
:100FE000B3FF05E0204600F059F8204600F058F81D
:100FF00000202077F00619D515F0100016D02068D3
:101000006FF01001016108212177C06910F4407F61
:1010100004D02046FFF798FF06E000BF204600F00E
:101020003DF8204600F03CF800202077F00718BF7C
:1010300015F0010002D1300609D412E020686FF0EB
:1010400001010161204600F02DF8300609D515F0A8
:10105000800006D020686FF0800101612046FFF714
:1010600069FE700609D515F0400006D020686FF0C3
:1010700040010161204600F027F8B00658BF70BD5E
:1010800015F0200008D021686FF0200220460A6188
:10109000BDE87040FFF750BE70BD00007047000013
:1010A0007047000040F27001C2F200010068096858
:1010B000884218BF704741F20000C4F202004FF4AA
:1010C0000061FFF775BA000070470000FEE70000FE
:1010D0002DE9F04387B0002743F6300006970197CB
:1010E000C4F20200016841F2000441F00101016014
:1010F0000168C4F2020401F0010101910199019714
:101100000168002241F08001016001684FF400662F
:1011100001F08001019101990197016841F01001EE
:101120000160016801F010010191019901970168C6
:1011300041F02001016000684FF4006100F02000E0
:10114000019001982046FFF73BFA04F58065284698
:101150004FF4804100224FF48048FFF731FA0296A5
:1011600002AE4FF0010920463146CDE903970597BD
:10117000FFF74AF928463146CDE90289CDE90477DF
:10118000FFF742F907B0BDE8F083000080B582B0F8
:1011900040F2700041F200020021C2F20000C4F2ED
:1011A000000242F2273342F20F7CCDE90011C0E980
:1011B0000023C0E9021C8161FFF71CFE002818BF54
:1011C000FFF71EF940F27000C2F200006946FFF717
:1011D000B5FD002818BFFFF713F902B080BD00006D
:1011E000FEE70000FEE700007047000070470000C7
:1011F000FFF7F2B980B592B0002043F64001CDE987
:101200000A00CDE908000590CDE90300CDE9010011
:101210000090C4F202010A6842F080520A60096834
:1012200001F0805100910099009047F20000C4F253
:101230000000016841F44041016000684FF4800102
:1012400000F4404000900098012006904FF4803058
:101250000D910621079002200E91B4210C90CDE94A
:101260000F100420119006A8FFF794FB10B172B67E
:10127000FEE700BFFFF76AFA10B172B6FEE700BFE3
:101280000F20019002200290002003904FF4A05004
:1012900004904FF48050059001A80521FFF794FABF
:1012A00010B172B6FEE700BF12B080BD4EF6885096
:1012B000CEF20000016841F4700101607047000047
:1012C00040F27000C2F20000FFF740BE10B540F6D9
:1012D000FF3E0368C4F2000E40F2004C7045C4F2B9
:1012E000010C27DCB0F1804F31D040F20042C4F253
:1012F000000290422BD040F60002C4F2000290425D
:1013000025D041F6FF72C4F20002904229DC7045FC
:101310003CDCB0F1804F5FD040F20042C4F20002EA
:10132000904259D040F60002C4F20002904253D0DD
:1013300056E000BF40F60042C4F20002904206D0E0
:10134000604504D00022C4F201029042D9D14A681B
:1013500023F07003134341F6FF72C4F2000290427F
:10136000D5DD43F6FF72C4F20102904222DC42F264
:101370000002C4F2000290422ED00022C4F2010208
:10138000904229D0604527D02AE000BF40F60042B5
:10139000C4F2000290421FD041F60002C4F20002E3
:1013A000904219D041F60042C4F20002904213D09C
:1013B00016E000BF44F20002C4F2010290420BD0DA
:1013C00044F60002C4F20102904205D044F2004209
:1013D000C4F20102904203D1CA6823F4407313435C
:1013E00023F080024B69D1F800E08C681A43026058
:1013F000C46240F48062C0F828E0624504BF096915
:101400000163012141610169C90708BF10BD01697C
:1014100021F00101016110BDFEE70000FFF7EAF8CD
:10142000FFF7E8FEFFF754FEFFF7B0FE40F2700052
:10143000C2F20000FFF732FDFEE7F1EE100A4FF6B0
:10144000FF71C0F2C03120EA010040F04070E1EECF
:10145000100A7047000000000000000001020304B1
:10146000060708098814000800000020100000008A
:10147000E80100089814000810000020B0060000E1
:10148000040200080000000001000000100000003D
:081490000024F400000000003C
:04000005080001AD41
:00000001FF
